{
  "_format": "hh-sol-artifact-1",
  "contractName": "SahyogCard",
  "sourceName": "contracts/SahyogCard.sol",
  "abi": [
    {
      "inputs": [],
      "stateMutability": "nonpayable",
      "type": "constructor"
    },
    {
      "inputs": [
        {
          "internalType": "address",
          "name": "target",
          "type": "address"
        }
      ],
      "name": "AddressEmptyCode",
      "type": "error"
    },
    {
      "inputs": [
        {
          "internalType": "address",
          "name": "implementation",
          "type": "address"
        }
      ],
      "name": "ERC1967InvalidImplementation",
      "type": "error"
    },
    {
      "inputs": [],
      "name": "ERC1967NonPayable",
      "type": "error"
    },
    {
      "inputs": [],
      "name": "EnforcedPause",
      "type": "error"
    },
    {
      "inputs": [],
      "name": "ExpectedPause",
      "type": "error"
    },
    {
      "inputs": [],
      "name": "FailedInnerCall",
      "type": "error"
    },
    {
      "inputs": [],
      "name": "InvalidInitialization",
      "type": "error"
    },
    {
      "inputs": [],
      "name": "NotInitializing",
      "type": "error"
    },
    {
      "inputs": [
        {
          "internalType": "address",
          "name": "owner",
          "type": "address"
        }
      ],
      "name": "OwnableInvalidOwner",
      "type": "error"
    },
    {
      "inputs": [
        {
          "internalType": "address",
          "name": "account",
          "type": "address"
        }
      ],
      "name": "OwnableUnauthorizedAccount",
      "type": "error"
    },
    {
      "inputs": [],
      "name": "UUPSUnauthorizedCallContext",
      "type": "error"
    },
    {
      "inputs": [
        {
          "internalType": "bytes32",
          "name": "slot",
          "type": "bytes32"
        }
      ],
      "name": "UUPSUnsupportedProxiableUUID",
      "type": "error"
    },
    {
      "anonymous": false,
      "inputs": [
        {
          "indexed": false,
          "internalType": "uint64",
          "name": "version",
          "type": "uint64"
        }
      ],
      "name": "Initialized",
      "type": "event"
    },
    {
      "anonymous": false,
      "inputs": [
        {
          "indexed": true,
          "internalType": "address",
          "name": "previousOwner",
          "type": "address"
        },
        {
          "indexed": true,
          "internalType": "address",
          "name": "newOwner",
          "type": "address"
        }
      ],
      "name": "OwnershipTransferred",
      "type": "event"
    },
    {
      "anonymous": false,
      "inputs": [
        {
          "indexed": false,
          "internalType": "address",
          "name": "account",
          "type": "address"
        }
      ],
      "name": "Paused",
      "type": "event"
    },
    {
      "anonymous": false,
      "inputs": [
        {
          "indexed": false,
          "internalType": "address",
          "name": "account",
          "type": "address"
        }
      ],
      "name": "Unpaused",
      "type": "event"
    },
    {
      "anonymous": false,
      "inputs": [
        {
          "indexed": true,
          "internalType": "address",
          "name": "implementation",
          "type": "address"
        }
      ],
      "name": "Upgraded",
      "type": "event"
    },
    {
      "inputs": [],
      "name": "UPGRADE_INTERFACE_VERSION",
      "outputs": [
        {
          "internalType": "string",
          "name": "",
          "type": "string"
        }
      ],
      "stateMutability": "view",
      "type": "function"
    },
    {
      "inputs": [
        {
          "internalType": "address",
          "name": "user",
          "type": "address"
        }
      ],
      "name": "deleteUserRecords",
      "outputs": [],
      "stateMutability": "nonpayable",
      "type": "function"
    },
    {
      "inputs": [
        {
          "internalType": "address",
          "name": "user",
          "type": "address"
        }
      ],
      "name": "getUserDetails",
      "outputs": [
        {
          "internalType": "uint256",
          "name": "",
          "type": "uint256"
        },
        {
          "internalType": "string",
          "name": "",
          "type": "string"
        },
        {
          "internalType": "string",
          "name": "",
          "type": "string"
        },
        {
          "internalType": "string",
          "name": "",
          "type": "string"
        }
      ],
      "stateMutability": "view",
      "type": "function"
    },
    {
      "inputs": [
        {
          "internalType": "address",
          "name": "user",
          "type": "address"
        }
      ],
      "name": "getUserRecords",
      "outputs": [
        {
          "internalType": "string[]",
          "name": "",
          "type": "string[]"
        }
      ],
      "stateMutability": "view",
      "type": "function"
    },
    {
      "inputs": [
        {
          "internalType": "address",
          "name": "initialOwner",
          "type": "address"
        }
      ],
      "name": "initialize",
      "outputs": [],
      "stateMutability": "nonpayable",
      "type": "function"
    },
    {
      "inputs": [],
      "name": "owner",
      "outputs": [
        {
          "internalType": "address",
          "name": "",
          "type": "address"
        }
      ],
      "stateMutability": "view",
      "type": "function"
    },
    {
      "inputs": [],
      "name": "pause",
      "outputs": [],
      "stateMutability": "nonpayable",
      "type": "function"
    },
    {
      "inputs": [],
      "name": "paused",
      "outputs": [
        {
          "internalType": "bool",
          "name": "",
          "type": "bool"
        }
      ],
      "stateMutability": "view",
      "type": "function"
    },
    {
      "inputs": [],
      "name": "proxiableUUID",
      "outputs": [
        {
          "internalType": "bytes32",
          "name": "",
          "type": "bytes32"
        }
      ],
      "stateMutability": "view",
      "type": "function"
    },
    {
      "inputs": [],
      "name": "renounceOwnership",
      "outputs": [],
      "stateMutability": "nonpayable",
      "type": "function"
    },
    {
      "inputs": [],
      "name": "startSharingData",
      "outputs": [],
      "stateMutability": "nonpayable",
      "type": "function"
    },
    {
      "inputs": [],
      "name": "stopSharingData",
      "outputs": [],
      "stateMutability": "nonpayable",
      "type": "function"
    },
    {
      "inputs": [
        {
          "internalType": "string",
          "name": "dataHash",
          "type": "string"
        }
      ],
      "name": "storeUserData",
      "outputs": [],
      "stateMutability": "nonpayable",
      "type": "function"
    },
    {
      "inputs": [
        {
          "internalType": "uint256",
          "name": "age",
          "type": "uint256"
        },
        {
          "internalType": "string",
          "name": "gender",
          "type": "string"
        },
        {
          "internalType": "string",
          "name": "name",
          "type": "string"
        },
        {
          "internalType": "string",
          "name": "phoneNumber",
          "type": "string"
        }
      ],
      "name": "storeUserDetails",
      "outputs": [],
      "stateMutability": "nonpayable",
      "type": "function"
    },
    {
      "inputs": [
        {
          "internalType": "address",
          "name": "newOwner",
          "type": "address"
        }
      ],
      "name": "transferOwnership",
      "outputs": [],
      "stateMutability": "nonpayable",
      "type": "function"
    },
    {
      "inputs": [],
      "name": "unpause",
      "outputs": [],
      "stateMutability": "nonpayable",
      "type": "function"
    },
    {
      "inputs": [
        {
          "internalType": "address",
          "name": "newImplementation",
          "type": "address"
        },
        {
          "internalType": "bytes",
          "name": "data",
          "type": "bytes"
        }
      ],
      "name": "upgradeToAndCall",
      "outputs": [],
      "stateMutability": "payable",
      "type": "function"
    }
  ],
  "bytecode": "0x60a06040523073ffffffffffffffffffffffffffffffffffffffff1660809073ffffffffffffffffffffffffffffffffffffffff168152503480156200004457600080fd5b50620000556200005b60201b60201c565b620001cf565b60006200006d6200016560201b60201c565b90508060000160089054906101000a900460ff1615620000b9576040517ff92ee8a900000000000000000000000000000000000000000000000000000000815260040160405180910390fd5b67ffffffffffffffff80168160000160009054906101000a900467ffffffffffffffff1667ffffffffffffffff1614620001625767ffffffffffffffff8160000160006101000a81548167ffffffffffffffff021916908367ffffffffffffffff1602179055507fc7f505b2f371ae2175ee4913f4499e1f2633a7b5936321eed1cdaeb6115181d267ffffffffffffffff604051620001599190620001b2565b60405180910390a15b50565b60007ff0c57e16840df040f15088dc2f81fe391c3923bec73e23a9662efc9c229c6a00905090565b600067ffffffffffffffff82169050919050565b620001ac816200018d565b82525050565b6000602082019050620001c96000830184620001a1565b92915050565b6080516124d6620001f960003960008181610f2601528181610f7b015261113601526124d66000f3fe6080604052600436106100fe5760003560e01c80638784e32011610095578063c4d66de811610064578063c4d66de8146102b6578063cc3d967b146102df578063d4628c7f1461031f578063e8f525f814610348578063f2fde38b1461035f576100fe565b80638784e3201461020e5780638788a1c7146102375780638da5cb5b14610260578063ad3cb1cc1461028b576100fe565b806352d1902d116100d157806352d1902d1461018a5780635c975abb146101b5578063715018a6146101e05780638456cb59146101f7576100fe565b806312a48ab8146101035780633f4ba83a1461011a5780634f1ef2861461013157806351096b021461014d575b600080fd5b34801561010f57600080fd5b50610118610388565b005b34801561012657600080fd5b5061012f6103e1565b005b61014b60048036038101906101469190611adf565b6103f3565b005b34801561015957600080fd5b50610174600480360381019061016f9190611b3b565b610412565b6040516101819190611ca9565b60405180910390f35b34801561019657600080fd5b5061019f6105b5565b6040516101ac9190611ce4565b60405180910390f35b3480156101c157600080fd5b506101ca6105e8565b6040516101d79190611d1a565b60405180910390f35b3480156101ec57600080fd5b506101f561060d565b005b34801561020357600080fd5b5061020c610621565b005b34801561021a57600080fd5b5061023560048036038101906102309190611b3b565b610633565b005b34801561024357600080fd5b5061025e60048036038101906102599190611e0c565b610688565b005b34801561026c57600080fd5b506102756107b9565b6040516102829190611ed6565b60405180910390f35b34801561029757600080fd5b506102a06107f1565b6040516102ad9190611f3b565b60405180910390f35b3480156102c257600080fd5b506102dd60048036038101906102d89190611b3b565b61082a565b005b3480156102eb57600080fd5b5061030660048036038101906103019190611b3b565b6109c9565b6040516103169493929190611f6c565b60405180910390f35b34801561032b57600080fd5b5061034660048036038101906103419190611fc6565b610c80565b005b34801561035457600080fd5b5061035d610d4b565b005b34801561036b57600080fd5b5061038660048036038101906103819190611b3b565b610da5565b005b60018060003373ffffffffffffffffffffffffffffffffffffffff1673ffffffffffffffffffffffffffffffffffffffff16815260200190815260200160002060006101000a81548160ff021916908315150217905550565b6103e9610e2b565b6103f1610eb2565b565b6103fb610f24565b6104048261100a565b61040e8282611015565b5050565b6060600160008373ffffffffffffffffffffffffffffffffffffffff1673ffffffffffffffffffffffffffffffffffffffff16815260200190815260200160002060009054906101000a900460ff166104a0576040517f08c379a000000000000000000000000000000000000000000000000000000000815260040161049790612081565b60405180910390fd5b6000808373ffffffffffffffffffffffffffffffffffffffff1673ffffffffffffffffffffffffffffffffffffffff168152602001908152602001600020805480602002602001604051908101604052809291908181526020016000905b828210156105aa57838290600052602060002001805461051d906120d0565b80601f0160208091040260200160405190810160405280929190818152602001828054610549906120d0565b80156105965780601f1061056b57610100808354040283529160200191610596565b820191906000526020600020905b81548152906001019060200180831161057957829003601f168201915b5050505050815260200190600101906104fe565b505050509050919050565b60006105bf611134565b7f360894a13ba1a3210667c828492db98dca3e2076cc3735a920a3ca505d382bbc60001b905090565b6000806105f36111bb565b90508060000160009054906101000a900460ff1691505090565b610615610e2b565b61061f60006111e3565b565b610629610e2b565b6106316112ba565b565b61063b610e2b565b6000808273ffffffffffffffffffffffffffffffffffffffff1673ffffffffffffffffffffffffffffffffffffffff16815260200190815260200160002060006106859190611885565b50565b83600260003373ffffffffffffffffffffffffffffffffffffffff1673ffffffffffffffffffffffffffffffffffffffff1681526020019081526020016000208190555082600360003373ffffffffffffffffffffffffffffffffffffffff1673ffffffffffffffffffffffffffffffffffffffff168152602001908152602001600020908161071891906122ad565b5081600460003373ffffffffffffffffffffffffffffffffffffffff1673ffffffffffffffffffffffffffffffffffffffff168152602001908152602001600020908161076591906122ad565b5080600560003373ffffffffffffffffffffffffffffffffffffffff1673ffffffffffffffffffffffffffffffffffffffff16815260200190815260200160002090816107b291906122ad565b5050505050565b6000806107c461132c565b90508060000160009054906101000a900473ffffffffffffffffffffffffffffffffffffffff1691505090565b6040518060400160405280600581526020017f352e302e3000000000000000000000000000000000000000000000000000000081525081565b6000610834611354565b905060008160000160089054906101000a900460ff1615905060008260000160009054906101000a900467ffffffffffffffff1690506000808267ffffffffffffffff161480156108825750825b9050600060018367ffffffffffffffff161480156108b7575060003073ffffffffffffffffffffffffffffffffffffffff163b145b9050811580156108c5575080155b156108fc576040517ff92ee8a900000000000000000000000000000000000000000000000000000000815260040160405180910390fd5b60018560000160006101000a81548167ffffffffffffffff021916908367ffffffffffffffff160217905550831561094c5760018560000160086101000a81548160ff0219169083151502179055505b61095461137c565b61095d8661138e565b6109656113a2565b83156109c15760008560000160086101000a81548160ff0219169083151502179055507fc7f505b2f371ae2175ee4913f4499e1f2633a7b5936321eed1cdaeb6115181d260016040516109b891906123ce565b60405180910390a15b505050505050565b60006060806060600260008673ffffffffffffffffffffffffffffffffffffffff1673ffffffffffffffffffffffffffffffffffffffff16815260200190815260200160002054600360008773ffffffffffffffffffffffffffffffffffffffff1673ffffffffffffffffffffffffffffffffffffffff168152602001908152602001600020600460008873ffffffffffffffffffffffffffffffffffffffff1673ffffffffffffffffffffffffffffffffffffffff168152602001908152602001600020600560008973ffffffffffffffffffffffffffffffffffffffff1673ffffffffffffffffffffffffffffffffffffffff168152602001908152602001600020828054610ad9906120d0565b80601f0160208091040260200160405190810160405280929190818152602001828054610b05906120d0565b8015610b525780601f10610b2757610100808354040283529160200191610b52565b820191906000526020600020905b815481529060010190602001808311610b3557829003601f168201915b50505050509250818054610b65906120d0565b80601f0160208091040260200160405190810160405280929190818152602001828054610b91906120d0565b8015610bde5780601f10610bb357610100808354040283529160200191610bde565b820191906000526020600020905b815481529060010190602001808311610bc157829003601f168201915b50505050509150808054610bf1906120d0565b80601f0160208091040260200160405190810160405280929190818152602001828054610c1d906120d0565b8015610c6a5780601f10610c3f57610100808354040283529160200191610c6a565b820191906000526020600020905b815481529060010190602001808311610c4d57829003601f168201915b5050505050905093509350935093509193509193565b6000803373ffffffffffffffffffffffffffffffffffffffff1673ffffffffffffffffffffffffffffffffffffffff16815260200190815260200160002081908060018154018082558091505060019003906000526020600020016000909190919091509081610cf091906122ad565b5060018060003373ffffffffffffffffffffffffffffffffffffffff1673ffffffffffffffffffffffffffffffffffffffff16815260200190815260200160002060006101000a81548160ff02191690831515021790555050565b6000600160003373ffffffffffffffffffffffffffffffffffffffff1673ffffffffffffffffffffffffffffffffffffffff16815260200190815260200160002060006101000a81548160ff021916908315150217905550565b610dad610e2b565b600073ffffffffffffffffffffffffffffffffffffffff168173ffffffffffffffffffffffffffffffffffffffff1603610e1f5760006040517f1e4fbdf7000000000000000000000000000000000000000000000000000000008152600401610e169190611ed6565b60405180910390fd5b610e28816111e3565b50565b610e336113ac565b73ffffffffffffffffffffffffffffffffffffffff16610e516107b9565b73ffffffffffffffffffffffffffffffffffffffff1614610eb057610e746113ac565b6040517f118cdaa7000000000000000000000000000000000000000000000000000000008152600401610ea79190611ed6565b60405180910390fd5b565b610eba6113b4565b6000610ec46111bb565b905060008160000160006101000a81548160ff0219169083151502179055507f5db9ee0a495bf2e6ff9c91a7834c1ba4fdd244a5e8aa4e537bd38aeae4b073aa610f0c6113ac565b604051610f199190611ed6565b60405180910390a150565b7f000000000000000000000000000000000000000000000000000000000000000073ffffffffffffffffffffffffffffffffffffffff163073ffffffffffffffffffffffffffffffffffffffff161480610fd157507f000000000000000000000000000000000000000000000000000000000000000073ffffffffffffffffffffffffffffffffffffffff16610fb86113f4565b73ffffffffffffffffffffffffffffffffffffffff1614155b15611008576040517fe07c8dba00000000000000000000000000000000000000000000000000000000815260040160405180910390fd5b565b611012610e2b565b50565b8173ffffffffffffffffffffffffffffffffffffffff166352d1902d6040518163ffffffff1660e01b8152600401602060405180830381865afa92505050801561107d57506040513d601f19601f8201168201806040525081019061107a9190612415565b60015b6110be57816040517f4c9c8ce30000000000000000000000000000000000000000000000000000000081526004016110b59190611ed6565b60405180910390fd5b7f360894a13ba1a3210667c828492db98dca3e2076cc3735a920a3ca505d382bbc60001b811461112557806040517faa1d49a400000000000000000000000000000000000000000000000000000000815260040161111c9190611ce4565b60405180910390fd5b61112f838361144b565b505050565b7f000000000000000000000000000000000000000000000000000000000000000073ffffffffffffffffffffffffffffffffffffffff163073ffffffffffffffffffffffffffffffffffffffff16146111b9576040517fe07c8dba00000000000000000000000000000000000000000000000000000000815260040160405180910390fd5b565b60007fcd5ed15c6e187e77e9aee88184c21f4f2182ab5827cb3b7e07fbedcd63f03300905090565b60006111ed61132c565b905060008160000160009054906101000a900473ffffffffffffffffffffffffffffffffffffffff169050828260000160006101000a81548173ffffffffffffffffffffffffffffffffffffffff021916908373ffffffffffffffffffffffffffffffffffffffff1602179055508273ffffffffffffffffffffffffffffffffffffffff168173ffffffffffffffffffffffffffffffffffffffff167f8be0079c531659141344cd1fd0a4f28419497f9722a3daafe3b4186f6b6457e060405160405180910390a3505050565b6112c26114be565b60006112cc6111bb565b905060018160000160006101000a81548160ff0219169083151502179055507f62e78cea01bee320cd4e420270b5ea74000d11b0c9f74754ebdbfc544b05a2586113146113ac565b6040516113219190611ed6565b60405180910390a150565b60007f9016d09d72d40fdae2fd8ceac6b6234c7706214fd39c1cd1e609a0528c199300905090565b60007ff0c57e16840df040f15088dc2f81fe391c3923bec73e23a9662efc9c229c6a00905090565b6113846114ff565b61138c61153f565b565b6113966114ff565b61139f81611573565b50565b6113aa6114ff565b565b600033905090565b6113bc6105e8565b6113f2576040517f8dfc202b00000000000000000000000000000000000000000000000000000000815260040160405180910390fd5b565b60006114227f360894a13ba1a3210667c828492db98dca3e2076cc3735a920a3ca505d382bbc60001b6115f9565b60000160009054906101000a900473ffffffffffffffffffffffffffffffffffffffff16905090565b61145482611603565b8173ffffffffffffffffffffffffffffffffffffffff167fbc7cd75a20ee27fd9adebab32041f755214dbc6bffa90cc0225b39da2e5c2d3b60405160405180910390a26000815111156114b1576114ab82826116d0565b506114ba565b6114b9611754565b5b5050565b6114c66105e8565b156114fd576040517fd93c066500000000000000000000000000000000000000000000000000000000815260040160405180910390fd5b565b611507611791565b61153d576040517fd7e6bcf800000000000000000000000000000000000000000000000000000000815260040160405180910390fd5b565b6115476114ff565b60006115516111bb565b905060008160000160006101000a81548160ff02191690831515021790555050565b61157b6114ff565b600073ffffffffffffffffffffffffffffffffffffffff168173ffffffffffffffffffffffffffffffffffffffff16036115ed5760006040517f1e4fbdf70000000000000000000000000000000000000000000000000000000081526004016115e49190611ed6565b60405180910390fd5b6115f6816111e3565b50565b6000819050919050565b60008173ffffffffffffffffffffffffffffffffffffffff163b0361165f57806040517f4c9c8ce30000000000000000000000000000000000000000000000000000000081526004016116569190611ed6565b60405180910390fd5b8061168c7f360894a13ba1a3210667c828492db98dca3e2076cc3735a920a3ca505d382bbc60001b6115f9565b60000160006101000a81548173ffffffffffffffffffffffffffffffffffffffff021916908373ffffffffffffffffffffffffffffffffffffffff16021790555050565b60606000808473ffffffffffffffffffffffffffffffffffffffff16846040516116fa9190612489565b600060405180830381855af49150503d8060008114611735576040519150601f19603f3d011682016040523d82523d6000602084013e61173a565b606091505b509150915061174a8583836117b1565b9250505092915050565b600034111561178f576040517fb398979f00000000000000000000000000000000000000000000000000000000815260040160405180910390fd5b565b600061179b611354565b60000160089054906101000a900460ff16905090565b6060826117c6576117c182611840565b611838565b600082511480156117ee575060008473ffffffffffffffffffffffffffffffffffffffff163b145b1561183057836040517f9996b3150000000000000000000000000000000000000000000000000000000081526004016118279190611ed6565b60405180910390fd5b819050611839565b5b9392505050565b6000815111156118535780518082602001fd5b6040517f1425ea4200000000000000000000000000000000000000000000000000000000815260040160405180910390fd5b50805460008255906000526020600020908101906118a391906118a6565b50565b5b808211156118c657600081816118bd91906118ca565b506001016118a7565b5090565b5080546118d6906120d0565b6000825580601f106118e85750611907565b601f016020900490600052602060002090810190611906919061190a565b5b50565b5b8082111561192357600081600090555060010161190b565b5090565b6000604051905090565b600080fd5b600080fd5b600073ffffffffffffffffffffffffffffffffffffffff82169050919050565b60006119668261193b565b9050919050565b6119768161195b565b811461198157600080fd5b50565b6000813590506119938161196d565b92915050565b600080fd5b600080fd5b6000601f19601f8301169050919050565b7f4e487b7100000000000000000000000000000000000000000000000000000000600052604160045260246000fd5b6119ec826119a3565b810181811067ffffffffffffffff82111715611a0b57611a0a6119b4565b5b80604052505050565b6000611a1e611927565b9050611a2a82826119e3565b919050565b600067ffffffffffffffff821115611a4a57611a496119b4565b5b611a53826119a3565b9050602081019050919050565b82818337600083830152505050565b6000611a82611a7d84611a2f565b611a14565b905082815260208101848484011115611a9e57611a9d61199e565b5b611aa9848285611a60565b509392505050565b600082601f830112611ac657611ac5611999565b5b8135611ad6848260208601611a6f565b91505092915050565b60008060408385031215611af657611af5611931565b5b6000611b0485828601611984565b925050602083013567ffffffffffffffff811115611b2557611b24611936565b5b611b3185828601611ab1565b9150509250929050565b600060208284031215611b5157611b50611931565b5b6000611b5f84828501611984565b91505092915050565b600081519050919050565b600082825260208201905092915050565b6000819050602082019050919050565b600081519050919050565b600082825260208201905092915050565b60005b83811015611bce578082015181840152602081019050611bb3565b60008484015250505050565b6000611be582611b94565b611bef8185611b9f565b9350611bff818560208601611bb0565b611c08816119a3565b840191505092915050565b6000611c1f8383611bda565b905092915050565b6000602082019050919050565b6000611c3f82611b68565b611c498185611b73565b935083602082028501611c5b85611b84565b8060005b85811015611c975784840389528151611c788582611c13565b9450611c8383611c27565b925060208a01995050600181019050611c5f565b50829750879550505050505092915050565b60006020820190508181036000830152611cc38184611c34565b905092915050565b6000819050919050565b611cde81611ccb565b82525050565b6000602082019050611cf96000830184611cd5565b92915050565b60008115159050919050565b611d1481611cff565b82525050565b6000602082019050611d2f6000830184611d0b565b92915050565b6000819050919050565b611d4881611d35565b8114611d5357600080fd5b50565b600081359050611d6581611d3f565b92915050565b600067ffffffffffffffff821115611d8657611d856119b4565b5b611d8f826119a3565b9050602081019050919050565b6000611daf611daa84611d6b565b611a14565b905082815260208101848484011115611dcb57611dca61199e565b5b611dd6848285611a60565b509392505050565b600082601f830112611df357611df2611999565b5b8135611e03848260208601611d9c565b91505092915050565b60008060008060808587031215611e2657611e25611931565b5b6000611e3487828801611d56565b945050602085013567ffffffffffffffff811115611e5557611e54611936565b5b611e6187828801611dde565b935050604085013567ffffffffffffffff811115611e8257611e81611936565b5b611e8e87828801611dde565b925050606085013567ffffffffffffffff811115611eaf57611eae611936565b5b611ebb87828801611dde565b91505092959194509250565b611ed08161195b565b82525050565b6000602082019050611eeb6000830184611ec7565b92915050565b600082825260208201905092915050565b6000611f0d82611b94565b611f178185611ef1565b9350611f27818560208601611bb0565b611f30816119a3565b840191505092915050565b60006020820190508181036000830152611f558184611f02565b905092915050565b611f6681611d35565b82525050565b6000608082019050611f816000830187611f5d565b8181036020830152611f938186611f02565b90508181036040830152611fa78185611f02565b90508181036060830152611fbb8184611f02565b905095945050505050565b600060208284031215611fdc57611fdb611931565b5b600082013567ffffffffffffffff811115611ffa57611ff9611936565b5b61200684828501611dde565b91505092915050565b7f546869732075736572206973206e6f742073686172696e67207468656972204d60008201527f65646963616c205265636f7264732e0000000000000000000000000000000000602082015250565b600061206b602f83611ef1565b91506120768261200f565b604082019050919050565b6000602082019050818103600083015261209a8161205e565b9050919050565b7f4e487b7100000000000000000000000000000000000000000000000000000000600052602260045260246000fd5b600060028204905060018216806120e857607f821691505b6020821081036120fb576120fa6120a1565b5b50919050565b60008190508160005260206000209050919050565b60006020601f8301049050919050565b600082821b905092915050565b6000600883026121637fffffffffffffffffffffffffffffffffffffffffffffffffffffffffffffffff82612126565b61216d8683612126565b95508019841693508086168417925050509392505050565b6000819050919050565b60006121aa6121a56121a084611d35565b612185565b611d35565b9050919050565b6000819050919050565b6121c48361218f565b6121d86121d0826121b1565b848454612133565b825550505050565b600090565b6121ed6121e0565b6121f88184846121bb565b505050565b5b8181101561221c576122116000826121e5565b6001810190506121fe565b5050565b601f8211156122615761223281612101565b61223b84612116565b8101602085101561224a578190505b61225e61225685612116565b8301826121fd565b50505b505050565b600082821c905092915050565b600061228460001984600802612266565b1980831691505092915050565b600061229d8383612273565b9150826002028217905092915050565b6122b682611b94565b67ffffffffffffffff8111156122cf576122ce6119b4565b5b6122d982546120d0565b6122e4828285612220565b600060209050601f8311600181146123175760008415612305578287015190505b61230f8582612291565b865550612377565b601f19841661232586612101565b60005b8281101561234d57848901518255600182019150602085019450602081019050612328565b8683101561236a5784890151612366601f891682612273565b8355505b6001600288020188555050505b505050505050565b6000819050919050565b600067ffffffffffffffff82169050919050565b60006123b86123b36123ae8461237f565b612185565b612389565b9050919050565b6123c88161239d565b82525050565b60006020820190506123e360008301846123bf565b92915050565b6123f281611ccb565b81146123fd57600080fd5b50565b60008151905061240f816123e9565b92915050565b60006020828403121561242b5761242a611931565b5b600061243984828501612400565b91505092915050565b600081519050919050565b600081905092915050565b600061246382612442565b61246d818561244d565b935061247d818560208601611bb0565b80840191505092915050565b60006124958284612458565b91508190509291505056fea2646970667358221220d337627aea76fd33e5ba49512a396af9fe926542bcd2bcb2bdde227cc83d21ae64736f6c63430008140033",
  "linkReferences": {},
  "deployedLinkReferences": {}
}