{
  "_format": "hh-sol-artifact-1",
  "contractName": "SahyogData",
  "sourceName": "contracts/SahyogCard.sol",
  "abi": [
    {
      "inputs": [],
      "stateMutability": "nonpayable",
      "type": "constructor"
    },
    {
      "inputs": [
        {
          "internalType": "address",
          "name": "target",
          "type": "address"
        }
      ],
      "name": "AddressEmptyCode",
      "type": "error"
    },
    {
      "inputs": [
        {
          "internalType": "address",
          "name": "implementation",
          "type": "address"
        }
      ],
      "name": "ERC1967InvalidImplementation",
      "type": "error"
    },
    {
      "inputs": [],
      "name": "ERC1967NonPayable",
      "type": "error"
    },
    {
      "inputs": [],
      "name": "EnforcedPause",
      "type": "error"
    },
    {
      "inputs": [],
      "name": "ExpectedPause",
      "type": "error"
    },
    {
      "inputs": [],
      "name": "FailedInnerCall",
      "type": "error"
    },
    {
      "inputs": [],
      "name": "InvalidInitialization",
      "type": "error"
    },
    {
      "inputs": [],
      "name": "NotInitializing",
      "type": "error"
    },
    {
      "inputs": [
        {
          "internalType": "address",
          "name": "owner",
          "type": "address"
        }
      ],
      "name": "OwnableInvalidOwner",
      "type": "error"
    },
    {
      "inputs": [
        {
          "internalType": "address",
          "name": "account",
          "type": "address"
        }
      ],
      "name": "OwnableUnauthorizedAccount",
      "type": "error"
    },
    {
      "inputs": [],
      "name": "UUPSUnauthorizedCallContext",
      "type": "error"
    },
    {
      "inputs": [
        {
          "internalType": "bytes32",
          "name": "slot",
          "type": "bytes32"
        }
      ],
      "name": "UUPSUnsupportedProxiableUUID",
      "type": "error"
    },
    {
      "anonymous": false,
      "inputs": [
        {
          "indexed": false,
          "internalType": "uint64",
          "name": "version",
          "type": "uint64"
        }
      ],
      "name": "Initialized",
      "type": "event"
    },
    {
      "anonymous": false,
      "inputs": [
        {
          "indexed": true,
          "internalType": "address",
          "name": "previousOwner",
          "type": "address"
        },
        {
          "indexed": true,
          "internalType": "address",
          "name": "newOwner",
          "type": "address"
        }
      ],
      "name": "OwnershipTransferred",
      "type": "event"
    },
    {
      "anonymous": false,
      "inputs": [
        {
          "indexed": false,
          "internalType": "address",
          "name": "account",
          "type": "address"
        }
      ],
      "name": "Paused",
      "type": "event"
    },
    {
      "anonymous": false,
      "inputs": [
        {
          "indexed": false,
          "internalType": "address",
          "name": "account",
          "type": "address"
        }
      ],
      "name": "Unpaused",
      "type": "event"
    },
    {
      "anonymous": false,
      "inputs": [
        {
          "indexed": true,
          "internalType": "address",
          "name": "implementation",
          "type": "address"
        }
      ],
      "name": "Upgraded",
      "type": "event"
    },
    {
      "inputs": [],
      "name": "UPGRADE_INTERFACE_VERSION",
      "outputs": [
        {
          "internalType": "string",
          "name": "",
          "type": "string"
        }
      ],
      "stateMutability": "view",
      "type": "function"
    },
    {
      "inputs": [
        {
          "internalType": "address",
          "name": "user",
          "type": "address"
        }
      ],
      "name": "getUserDetails",
      "outputs": [
        {
          "internalType": "uint256",
          "name": "",
          "type": "uint256"
        },
        {
          "internalType": "string",
          "name": "",
          "type": "string"
        },
        {
          "internalType": "string",
          "name": "",
          "type": "string"
        },
        {
          "internalType": "string",
          "name": "",
          "type": "string"
        }
      ],
      "stateMutability": "view",
      "type": "function"
    },
    {
      "inputs": [
        {
          "internalType": "address",
          "name": "user",
          "type": "address"
        }
      ],
      "name": "getUserRecords",
      "outputs": [
        {
          "internalType": "string[]",
          "name": "",
          "type": "string[]"
        }
      ],
      "stateMutability": "view",
      "type": "function"
    },
    {
      "inputs": [
        {
          "internalType": "address",
          "name": "initialOwner",
          "type": "address"
        }
      ],
      "name": "initialize",
      "outputs": [],
      "stateMutability": "nonpayable",
      "type": "function"
    },
    {
      "inputs": [],
      "name": "owner",
      "outputs": [
        {
          "internalType": "address",
          "name": "",
          "type": "address"
        }
      ],
      "stateMutability": "view",
      "type": "function"
    },
    {
      "inputs": [],
      "name": "pause",
      "outputs": [],
      "stateMutability": "nonpayable",
      "type": "function"
    },
    {
      "inputs": [],
      "name": "paused",
      "outputs": [
        {
          "internalType": "bool",
          "name": "",
          "type": "bool"
        }
      ],
      "stateMutability": "view",
      "type": "function"
    },
    {
      "inputs": [],
      "name": "proxiableUUID",
      "outputs": [
        {
          "internalType": "bytes32",
          "name": "",
          "type": "bytes32"
        }
      ],
      "stateMutability": "view",
      "type": "function"
    },
    {
      "inputs": [],
      "name": "renounceOwnership",
      "outputs": [],
      "stateMutability": "nonpayable",
      "type": "function"
    },
    {
      "inputs": [],
      "name": "startSharingData",
      "outputs": [],
      "stateMutability": "nonpayable",
      "type": "function"
    },
    {
      "inputs": [],
      "name": "stopSharingData",
      "outputs": [],
      "stateMutability": "nonpayable",
      "type": "function"
    },
    {
      "inputs": [
        {
          "internalType": "string",
          "name": "dataHash",
          "type": "string"
        }
      ],
      "name": "storeUserData",
      "outputs": [],
      "stateMutability": "nonpayable",
      "type": "function"
    },
    {
      "inputs": [
        {
          "internalType": "uint256",
          "name": "age",
          "type": "uint256"
        },
        {
          "internalType": "string",
          "name": "gender",
          "type": "string"
        },
        {
          "internalType": "string",
          "name": "name",
          "type": "string"
        },
        {
          "internalType": "string",
          "name": "phoneNumber",
          "type": "string"
        }
      ],
      "name": "storeUserDetails",
      "outputs": [],
      "stateMutability": "nonpayable",
      "type": "function"
    },
    {
      "inputs": [
        {
          "internalType": "address",
          "name": "newOwner",
          "type": "address"
        }
      ],
      "name": "transferOwnership",
      "outputs": [],
      "stateMutability": "nonpayable",
      "type": "function"
    },
    {
      "inputs": [],
      "name": "unpause",
      "outputs": [],
      "stateMutability": "nonpayable",
      "type": "function"
    },
    {
      "inputs": [
        {
          "internalType": "address",
          "name": "newImplementation",
          "type": "address"
        },
        {
          "internalType": "bytes",
          "name": "data",
          "type": "bytes"
        }
      ],
      "name": "upgradeToAndCall",
      "outputs": [],
      "stateMutability": "payable",
      "type": "function"
    }
  ],
  "bytecode": "0x60a06040523073ffffffffffffffffffffffffffffffffffffffff1660809073ffffffffffffffffffffffffffffffffffffffff168152503480156200004457600080fd5b50620000556200005b60201b60201c565b620001cf565b60006200006d6200016560201b60201c565b90508060000160089054906101000a900460ff1615620000b9576040517ff92ee8a900000000000000000000000000000000000000000000000000000000815260040160405180910390fd5b67ffffffffffffffff80168160000160009054906101000a900467ffffffffffffffff1667ffffffffffffffff1614620001625767ffffffffffffffff8160000160006101000a81548167ffffffffffffffff021916908367ffffffffffffffff1602179055507fc7f505b2f371ae2175ee4913f4499e1f2633a7b5936321eed1cdaeb6115181d267ffffffffffffffff604051620001599190620001b2565b60405180910390a15b50565b60007ff0c57e16840df040f15088dc2f81fe391c3923bec73e23a9662efc9c229c6a00905090565b600067ffffffffffffffff82169050919050565b620001ac816200018d565b82525050565b6000602082019050620001c96000830184620001a1565b92915050565b6080516123ab620001f960003960008181610e9d01528181610ef201526110ad01526123ab6000f3fe6080604052600436106100f35760003560e01c80638788a1c71161008a578063cc3d967b11610059578063cc3d967b146102ab578063d4628c7f146102eb578063e8f525f814610314578063f2fde38b1461032b576100f3565b80638788a1c7146102035780638da5cb5b1461022c578063ad3cb1cc14610257578063c4d66de814610282576100f3565b806352d1902d116100c657806352d1902d1461017f5780635c975abb146101aa578063715018a6146101d55780638456cb59146101ec576100f3565b806312a48ab8146100f85780633f4ba83a1461010f5780634f1ef2861461012657806351096b0214610142575b600080fd5b34801561010457600080fd5b5061010d610354565b005b34801561011b57600080fd5b506101246103ad565b005b610140600480360381019061013b91906119b4565b6103bf565b005b34801561014e57600080fd5b5061016960048036038101906101649190611a10565b6103de565b6040516101769190611b7e565b60405180910390f35b34801561018b57600080fd5b50610194610581565b6040516101a19190611bb9565b60405180910390f35b3480156101b657600080fd5b506101bf6105b4565b6040516101cc9190611bef565b60405180910390f35b3480156101e157600080fd5b506101ea6105d9565b005b3480156101f857600080fd5b506102016105ed565b005b34801561020f57600080fd5b5061022a60048036038101906102259190611ce1565b6105ff565b005b34801561023857600080fd5b50610241610730565b60405161024e9190611dab565b60405180910390f35b34801561026357600080fd5b5061026c610768565b6040516102799190611e10565b60405180910390f35b34801561028e57600080fd5b506102a960048036038101906102a49190611a10565b6107a1565b005b3480156102b757600080fd5b506102d260048036038101906102cd9190611a10565b610940565b6040516102e29493929190611e41565b60405180910390f35b3480156102f757600080fd5b50610312600480360381019061030d9190611e9b565b610bf7565b005b34801561032057600080fd5b50610329610cc2565b005b34801561033757600080fd5b50610352600480360381019061034d9190611a10565b610d1c565b005b60018060003373ffffffffffffffffffffffffffffffffffffffff1673ffffffffffffffffffffffffffffffffffffffff16815260200190815260200160002060006101000a81548160ff021916908315150217905550565b6103b5610da2565b6103bd610e29565b565b6103c7610e9b565b6103d082610f81565b6103da8282610f8c565b5050565b6060600160008373ffffffffffffffffffffffffffffffffffffffff1673ffffffffffffffffffffffffffffffffffffffff16815260200190815260200160002060009054906101000a900460ff1661046c576040517f08c379a000000000000000000000000000000000000000000000000000000000815260040161046390611f56565b60405180910390fd5b6000808373ffffffffffffffffffffffffffffffffffffffff1673ffffffffffffffffffffffffffffffffffffffff168152602001908152602001600020805480602002602001604051908101604052809291908181526020016000905b828210156105765783829060005260206000200180546104e990611fa5565b80601f016020809104026020016040519081016040528092919081815260200182805461051590611fa5565b80156105625780601f1061053757610100808354040283529160200191610562565b820191906000526020600020905b81548152906001019060200180831161054557829003601f168201915b5050505050815260200190600101906104ca565b505050509050919050565b600061058b6110ab565b7f360894a13ba1a3210667c828492db98dca3e2076cc3735a920a3ca505d382bbc60001b905090565b6000806105bf611132565b90508060000160009054906101000a900460ff1691505090565b6105e1610da2565b6105eb600061115a565b565b6105f5610da2565b6105fd611231565b565b83600260003373ffffffffffffffffffffffffffffffffffffffff1673ffffffffffffffffffffffffffffffffffffffff1681526020019081526020016000208190555082600360003373ffffffffffffffffffffffffffffffffffffffff1673ffffffffffffffffffffffffffffffffffffffff168152602001908152602001600020908161068f9190612182565b5081600460003373ffffffffffffffffffffffffffffffffffffffff1673ffffffffffffffffffffffffffffffffffffffff16815260200190815260200160002090816106dc9190612182565b5080600560003373ffffffffffffffffffffffffffffffffffffffff1673ffffffffffffffffffffffffffffffffffffffff16815260200190815260200160002090816107299190612182565b5050505050565b60008061073b6112a3565b90508060000160009054906101000a900473ffffffffffffffffffffffffffffffffffffffff1691505090565b6040518060400160405280600581526020017f352e302e3000000000000000000000000000000000000000000000000000000081525081565b60006107ab6112cb565b905060008160000160089054906101000a900460ff1615905060008260000160009054906101000a900467ffffffffffffffff1690506000808267ffffffffffffffff161480156107f95750825b9050600060018367ffffffffffffffff1614801561082e575060003073ffffffffffffffffffffffffffffffffffffffff163b145b90508115801561083c575080155b15610873576040517ff92ee8a900000000000000000000000000000000000000000000000000000000815260040160405180910390fd5b60018560000160006101000a81548167ffffffffffffffff021916908367ffffffffffffffff16021790555083156108c35760018560000160086101000a81548160ff0219169083151502179055505b6108cb6112f3565b6108d486611305565b6108dc611319565b83156109385760008560000160086101000a81548160ff0219169083151502179055507fc7f505b2f371ae2175ee4913f4499e1f2633a7b5936321eed1cdaeb6115181d2600160405161092f91906122a3565b60405180910390a15b505050505050565b60006060806060600260008673ffffffffffffffffffffffffffffffffffffffff1673ffffffffffffffffffffffffffffffffffffffff16815260200190815260200160002054600360008773ffffffffffffffffffffffffffffffffffffffff1673ffffffffffffffffffffffffffffffffffffffff168152602001908152602001600020600460008873ffffffffffffffffffffffffffffffffffffffff1673ffffffffffffffffffffffffffffffffffffffff168152602001908152602001600020600560008973ffffffffffffffffffffffffffffffffffffffff1673ffffffffffffffffffffffffffffffffffffffff168152602001908152602001600020828054610a5090611fa5565b80601f0160208091040260200160405190810160405280929190818152602001828054610a7c90611fa5565b8015610ac95780601f10610a9e57610100808354040283529160200191610ac9565b820191906000526020600020905b815481529060010190602001808311610aac57829003601f168201915b50505050509250818054610adc90611fa5565b80601f0160208091040260200160405190810160405280929190818152602001828054610b0890611fa5565b8015610b555780601f10610b2a57610100808354040283529160200191610b55565b820191906000526020600020905b815481529060010190602001808311610b3857829003601f168201915b50505050509150808054610b6890611fa5565b80601f0160208091040260200160405190810160405280929190818152602001828054610b9490611fa5565b8015610be15780601f10610bb657610100808354040283529160200191610be1565b820191906000526020600020905b815481529060010190602001808311610bc457829003601f168201915b5050505050905093509350935093509193509193565b6000803373ffffffffffffffffffffffffffffffffffffffff1673ffffffffffffffffffffffffffffffffffffffff16815260200190815260200160002081908060018154018082558091505060019003906000526020600020016000909190919091509081610c679190612182565b5060018060003373ffffffffffffffffffffffffffffffffffffffff1673ffffffffffffffffffffffffffffffffffffffff16815260200190815260200160002060006101000a81548160ff02191690831515021790555050565b6000600160003373ffffffffffffffffffffffffffffffffffffffff1673ffffffffffffffffffffffffffffffffffffffff16815260200190815260200160002060006101000a81548160ff021916908315150217905550565b610d24610da2565b600073ffffffffffffffffffffffffffffffffffffffff168173ffffffffffffffffffffffffffffffffffffffff1603610d965760006040517f1e4fbdf7000000000000000000000000000000000000000000000000000000008152600401610d8d9190611dab565b60405180910390fd5b610d9f8161115a565b50565b610daa611323565b73ffffffffffffffffffffffffffffffffffffffff16610dc8610730565b73ffffffffffffffffffffffffffffffffffffffff1614610e2757610deb611323565b6040517f118cdaa7000000000000000000000000000000000000000000000000000000008152600401610e1e9190611dab565b60405180910390fd5b565b610e3161132b565b6000610e3b611132565b905060008160000160006101000a81548160ff0219169083151502179055507f5db9ee0a495bf2e6ff9c91a7834c1ba4fdd244a5e8aa4e537bd38aeae4b073aa610e83611323565b604051610e909190611dab565b60405180910390a150565b7f000000000000000000000000000000000000000000000000000000000000000073ffffffffffffffffffffffffffffffffffffffff163073ffffffffffffffffffffffffffffffffffffffff161480610f4857507f000000000000000000000000000000000000000000000000000000000000000073ffffffffffffffffffffffffffffffffffffffff16610f2f61136b565b73ffffffffffffffffffffffffffffffffffffffff1614155b15610f7f576040517fe07c8dba00000000000000000000000000000000000000000000000000000000815260040160405180910390fd5b565b610f89610da2565b50565b8173ffffffffffffffffffffffffffffffffffffffff166352d1902d6040518163ffffffff1660e01b8152600401602060405180830381865afa925050508015610ff457506040513d601f19601f82011682018060405250810190610ff191906122ea565b60015b61103557816040517f4c9c8ce300000000000000000000000000000000000000000000000000000000815260040161102c9190611dab565b60405180910390fd5b7f360894a13ba1a3210667c828492db98dca3e2076cc3735a920a3ca505d382bbc60001b811461109c57806040517faa1d49a40000000000000000000000000000000000000000000000000000000081526004016110939190611bb9565b60405180910390fd5b6110a683836113c2565b505050565b7f000000000000000000000000000000000000000000000000000000000000000073ffffffffffffffffffffffffffffffffffffffff163073ffffffffffffffffffffffffffffffffffffffff1614611130576040517fe07c8dba00000000000000000000000000000000000000000000000000000000815260040160405180910390fd5b565b60007fcd5ed15c6e187e77e9aee88184c21f4f2182ab5827cb3b7e07fbedcd63f03300905090565b60006111646112a3565b905060008160000160009054906101000a900473ffffffffffffffffffffffffffffffffffffffff169050828260000160006101000a81548173ffffffffffffffffffffffffffffffffffffffff021916908373ffffffffffffffffffffffffffffffffffffffff1602179055508273ffffffffffffffffffffffffffffffffffffffff168173ffffffffffffffffffffffffffffffffffffffff167f8be0079c531659141344cd1fd0a4f28419497f9722a3daafe3b4186f6b6457e060405160405180910390a3505050565b611239611435565b6000611243611132565b905060018160000160006101000a81548160ff0219169083151502179055507f62e78cea01bee320cd4e420270b5ea74000d11b0c9f74754ebdbfc544b05a25861128b611323565b6040516112989190611dab565b60405180910390a150565b60007f9016d09d72d40fdae2fd8ceac6b6234c7706214fd39c1cd1e609a0528c199300905090565b60007ff0c57e16840df040f15088dc2f81fe391c3923bec73e23a9662efc9c229c6a00905090565b6112fb611476565b6113036114b6565b565b61130d611476565b611316816114ea565b50565b611321611476565b565b600033905090565b6113336105b4565b611369576040517f8dfc202b00000000000000000000000000000000000000000000000000000000815260040160405180910390fd5b565b60006113997f360894a13ba1a3210667c828492db98dca3e2076cc3735a920a3ca505d382bbc60001b611570565b60000160009054906101000a900473ffffffffffffffffffffffffffffffffffffffff16905090565b6113cb8261157a565b8173ffffffffffffffffffffffffffffffffffffffff167fbc7cd75a20ee27fd9adebab32041f755214dbc6bffa90cc0225b39da2e5c2d3b60405160405180910390a2600081511115611428576114228282611647565b50611431565b6114306116cb565b5b5050565b61143d6105b4565b15611474576040517fd93c066500000000000000000000000000000000000000000000000000000000815260040160405180910390fd5b565b61147e611708565b6114b4576040517fd7e6bcf800000000000000000000000000000000000000000000000000000000815260040160405180910390fd5b565b6114be611476565b60006114c8611132565b905060008160000160006101000a81548160ff02191690831515021790555050565b6114f2611476565b600073ffffffffffffffffffffffffffffffffffffffff168173ffffffffffffffffffffffffffffffffffffffff16036115645760006040517f1e4fbdf700000000000000000000000000000000000000000000000000000000815260040161155b9190611dab565b60405180910390fd5b61156d8161115a565b50565b6000819050919050565b60008173ffffffffffffffffffffffffffffffffffffffff163b036115d657806040517f4c9c8ce30000000000000000000000000000000000000000000000000000000081526004016115cd9190611dab565b60405180910390fd5b806116037f360894a13ba1a3210667c828492db98dca3e2076cc3735a920a3ca505d382bbc60001b611570565b60000160006101000a81548173ffffffffffffffffffffffffffffffffffffffff021916908373ffffffffffffffffffffffffffffffffffffffff16021790555050565b60606000808473ffffffffffffffffffffffffffffffffffffffff1684604051611671919061235e565b600060405180830381855af49150503d80600081146116ac576040519150601f19603f3d011682016040523d82523d6000602084013e6116b1565b606091505b50915091506116c1858383611728565b9250505092915050565b6000341115611706576040517fb398979f00000000000000000000000000000000000000000000000000000000815260040160405180910390fd5b565b60006117126112cb565b60000160089054906101000a900460ff16905090565b60608261173d57611738826117b7565b6117af565b60008251148015611765575060008473ffffffffffffffffffffffffffffffffffffffff163b145b156117a757836040517f9996b31500000000000000000000000000000000000000000000000000000000815260040161179e9190611dab565b60405180910390fd5b8190506117b0565b5b9392505050565b6000815111156117ca5780518082602001fd5b6040517f1425ea4200000000000000000000000000000000000000000000000000000000815260040160405180910390fd5b6000604051905090565b600080fd5b600080fd5b600073ffffffffffffffffffffffffffffffffffffffff82169050919050565b600061183b82611810565b9050919050565b61184b81611830565b811461185657600080fd5b50565b60008135905061186881611842565b92915050565b600080fd5b600080fd5b6000601f19601f8301169050919050565b7f4e487b7100000000000000000000000000000000000000000000000000000000600052604160045260246000fd5b6118c182611878565b810181811067ffffffffffffffff821117156118e0576118df611889565b5b80604052505050565b60006118f36117fc565b90506118ff82826118b8565b919050565b600067ffffffffffffffff82111561191f5761191e611889565b5b61192882611878565b9050602081019050919050565b82818337600083830152505050565b600061195761195284611904565b6118e9565b90508281526020810184848401111561197357611972611873565b5b61197e848285611935565b509392505050565b600082601f83011261199b5761199a61186e565b5b81356119ab848260208601611944565b91505092915050565b600080604083850312156119cb576119ca611806565b5b60006119d985828601611859565b925050602083013567ffffffffffffffff8111156119fa576119f961180b565b5b611a0685828601611986565b9150509250929050565b600060208284031215611a2657611a25611806565b5b6000611a3484828501611859565b91505092915050565b600081519050919050565b600082825260208201905092915050565b6000819050602082019050919050565b600081519050919050565b600082825260208201905092915050565b60005b83811015611aa3578082015181840152602081019050611a88565b60008484015250505050565b6000611aba82611a69565b611ac48185611a74565b9350611ad4818560208601611a85565b611add81611878565b840191505092915050565b6000611af48383611aaf565b905092915050565b6000602082019050919050565b6000611b1482611a3d565b611b1e8185611a48565b935083602082028501611b3085611a59565b8060005b85811015611b6c5784840389528151611b4d8582611ae8565b9450611b5883611afc565b925060208a01995050600181019050611b34565b50829750879550505050505092915050565b60006020820190508181036000830152611b988184611b09565b905092915050565b6000819050919050565b611bb381611ba0565b82525050565b6000602082019050611bce6000830184611baa565b92915050565b60008115159050919050565b611be981611bd4565b82525050565b6000602082019050611c046000830184611be0565b92915050565b6000819050919050565b611c1d81611c0a565b8114611c2857600080fd5b50565b600081359050611c3a81611c14565b92915050565b600067ffffffffffffffff821115611c5b57611c5a611889565b5b611c6482611878565b9050602081019050919050565b6000611c84611c7f84611c40565b6118e9565b905082815260208101848484011115611ca057611c9f611873565b5b611cab848285611935565b509392505050565b600082601f830112611cc857611cc761186e565b5b8135611cd8848260208601611c71565b91505092915050565b60008060008060808587031215611cfb57611cfa611806565b5b6000611d0987828801611c2b565b945050602085013567ffffffffffffffff811115611d2a57611d2961180b565b5b611d3687828801611cb3565b935050604085013567ffffffffffffffff811115611d5757611d5661180b565b5b611d6387828801611cb3565b925050606085013567ffffffffffffffff811115611d8457611d8361180b565b5b611d9087828801611cb3565b91505092959194509250565b611da581611830565b82525050565b6000602082019050611dc06000830184611d9c565b92915050565b600082825260208201905092915050565b6000611de282611a69565b611dec8185611dc6565b9350611dfc818560208601611a85565b611e0581611878565b840191505092915050565b60006020820190508181036000830152611e2a8184611dd7565b905092915050565b611e3b81611c0a565b82525050565b6000608082019050611e566000830187611e32565b8181036020830152611e688186611dd7565b90508181036040830152611e7c8185611dd7565b90508181036060830152611e908184611dd7565b905095945050505050565b600060208284031215611eb157611eb0611806565b5b600082013567ffffffffffffffff811115611ecf57611ece61180b565b5b611edb84828501611cb3565b91505092915050565b7f546869732075736572206973206e6f742073686172696e67207468656972204d60008201527f65646963616c205265636f7264732e0000000000000000000000000000000000602082015250565b6000611f40602f83611dc6565b9150611f4b82611ee4565b604082019050919050565b60006020820190508181036000830152611f6f81611f33565b9050919050565b7f4e487b7100000000000000000000000000000000000000000000000000000000600052602260045260246000fd5b60006002820490506001821680611fbd57607f821691505b602082108103611fd057611fcf611f76565b5b50919050565b60008190508160005260206000209050919050565b60006020601f8301049050919050565b600082821b905092915050565b6000600883026120387fffffffffffffffffffffffffffffffffffffffffffffffffffffffffffffffff82611ffb565b6120428683611ffb565b95508019841693508086168417925050509392505050565b6000819050919050565b600061207f61207a61207584611c0a565b61205a565b611c0a565b9050919050565b6000819050919050565b61209983612064565b6120ad6120a582612086565b848454612008565b825550505050565b600090565b6120c26120b5565b6120cd818484612090565b505050565b5b818110156120f1576120e66000826120ba565b6001810190506120d3565b5050565b601f8211156121365761210781611fd6565b61211084611feb565b8101602085101561211f578190505b61213361212b85611feb565b8301826120d2565b50505b505050565b600082821c905092915050565b60006121596000198460080261213b565b1980831691505092915050565b60006121728383612148565b9150826002028217905092915050565b61218b82611a69565b67ffffffffffffffff8111156121a4576121a3611889565b5b6121ae8254611fa5565b6121b98282856120f5565b600060209050601f8311600181146121ec57600084156121da578287015190505b6121e48582612166565b86555061224c565b601f1984166121fa86611fd6565b60005b82811015612222578489015182556001820191506020850194506020810190506121fd565b8683101561223f578489015161223b601f891682612148565b8355505b6001600288020188555050505b505050505050565b6000819050919050565b600067ffffffffffffffff82169050919050565b600061228d61228861228384612254565b61205a565b61225e565b9050919050565b61229d81612272565b82525050565b60006020820190506122b86000830184612294565b92915050565b6122c781611ba0565b81146122d257600080fd5b50565b6000815190506122e4816122be565b92915050565b600060208284031215612300576122ff611806565b5b600061230e848285016122d5565b91505092915050565b600081519050919050565b600081905092915050565b600061233882612317565b6123428185612322565b9350612352818560208601611a85565b80840191505092915050565b600061236a828461232d565b91508190509291505056fea26469706673582212209fd5049fd0ead4cbc0b76f4e809f7144bf12a67a836f36640f504a3cdb91077364736f6c63430008140033",
  "linkReferences": {},
  "deployedLinkReferences": {}
}